{
  "_format": "hh-sol-artifact-1",
  "contractName": "AreaCalculator",
  "sourceName": "contracts/AreaCalculator.sol",
  "abi": [
    {
      "inputs": [
        {
          "internalType": "uint256",
          "name": "length",
          "type": "uint256"
        },
        {
          "internalType": "uint256",
          "name": "width",
          "type": "uint256"
        }
      ],
      "name": "areaRectangle",
      "outputs": [
        {
          "internalType": "uint256",
          "name": "",
          "type": "uint256"
        }
      ],
      "stateMutability": "pure",
      "type": "function"
    },
    {
      "inputs": [
        {
          "internalType": "uint256",
          "name": "side",
          "type": "uint256"
        }
      ],
      "name": "areaSquare",
      "outputs": [
        {
          "internalType": "uint256",
          "name": "",
          "type": "uint256"
        }
      ],
      "stateMutability": "pure",
      "type": "function"
    },
    {
      "inputs": [
        {
          "internalType": "uint256",
          "name": "baselength",
          "type": "uint256"
        },
        {
          "internalType": "uint256",
          "name": "height",
          "type": "uint256"
        }
      ],
      "name": "areaTriangle",
      "outputs": [
        {
          "internalType": "uint256",
          "name": "",
          "type": "uint256"
        }
      ],
      "stateMutability": "pure",
      "type": "function"
    }
  ],
  "bytecode": "0x608060405234801561001057600080fd5b5061030b806100206000396000f3fe608060405234801561001057600080fd5b50600436106100415760003560e01c80631d3869d0146100465780634b4b932c14610076578063fd81dda8146100a6575b600080fd5b610060600480360381019061005b919061016d565b6100d6565b60405161006d91906101bc565b60405180910390f35b610090600480360381019061008b91906101d7565b6100f1565b60405161009d91906101bc565b60405180910390f35b6100c060048036038101906100bb919061016d565b61010b565b6040516100cd91906101bc565b60405180910390f35b60008082846100e59190610233565b90508091505092915050565b60008082836101009190610233565b905080915050919050565b6000806002838561011c9190610233565b61012691906102a4565b90508091505092915050565b600080fd5b6000819050919050565b61014a81610137565b811461015557600080fd5b50565b60008135905061016781610141565b92915050565b6000806040838503121561018457610183610132565b5b600061019285828601610158565b92505060206101a385828601610158565b9150509250929050565b6101b681610137565b82525050565b60006020820190506101d160008301846101ad565b92915050565b6000602082840312156101ed576101ec610132565b5b60006101fb84828501610158565b91505092915050565b7f4e487b7100000000000000000000000000000000000000000000000000000000600052601160045260246000fd5b600061023e82610137565b915061024983610137565b925082820261025781610137565b9150828204841483151761026e5761026d610204565b5b5092915050565b7f4e487b7100000000000000000000000000000000000000000000000000000000600052601260045260246000fd5b60006102af82610137565b91506102ba83610137565b9250826102ca576102c9610275565b5b82820490509291505056fea264697066735822122065b38c1b97c7ed33eb8e1e0a34c1766fac52d89ce342aca25d1be1448385c2f764736f6c63430008180033",
  "linkReferences": {},
  "deployedLinkReferences": {}
}